:020000040800F2
:10000000000400206B2900087929000873270008E4
:100010007D2900087F2900088129000800000000D0
:10002000000000000000000000000000832900081C
:100030008529000800000000872900088B4F000870
:100040008B2900088B2900088B2900088B290008C0
:100050008B2900088B2900086D1B0008751B000800
:10006000811B0008831B00088B1B00088B290008DC
:100070006F1100088B290008A31100088B290008C4
:100080008B290008D71100088B2900088B2900084C
:100090008B2900088B2900088B290008931B000876
:1000A0008B2900088B2900088B2900088B29000860
:1000B0008B2900088B2900088B2900088B29000850
:1000C0008B2900088B2900088B2900088B29000840
:1000D0008B290008E51000081311000841110008E1
:1000E0008B2900088B2900088B2900088B29000820
:1000F0008B2900088B2900088B2900088B29000810
:100100008B2900088B2900088B2900088B290008FF
:100110008B2900088B2900088B2900088B290008EF
:100120008B2900088B2900088B2900088B290008DF
:1001300000F002F800F03AF80AA090E8000C8244BF
:100140008344AAF10107DA4501D100F02FF8AFF29C
:10015000090EBAE80F0013F0010F18BFFB1A43F0A5
:1001600001031847F85E0000185F0000103A24BF32
:1001700078C878C1FAD8520724BF30C830C144BF0C
:1001800004680C607047000000230024002500264E
:10019000103A28BF78C1FBD8520728BF30C148BFEA
:1001A0000B6070471FB51FBD10B510BD04F084FF74
:1001B0001146FFF7F7FF02F0AAFA04F0A2FF03B41A
:1001C000FFF7F2FF03BC04F0A9FF0000012101705A
:1001D00041700C21C1700021817041F23421818075
:1001E0001721C1804FF416518160002141820182A4
:1001F000C18181818175C17503210175417500211E
:100200008161C161704710B5FC48C06F10B1FB49F6
:10021000C86F804710BD10B5F8490868343100F048
:10022000DAFC012805D1F548806F10B1F349886FD9
:10023000804710BD10B5F248C06F10B1F049C86FCB
:10024000804710BD10B5EE490868343100F0C3FC9A
:10025000012805D1EA48806F10B1E949886F8047CD
:1002600010BD10B5E748C06F10B1E649C86F8047B0
:1002700010BD10B5E3490868343100F0ACFC01282A
:1002800005D1E048806F10B1DE49886F804710BD0E
:1002900030B589B004460D4604B115B9002009B047
:1002A00030BDD84884420FD1D748D6490860D748D6
:1002B000486080150881D548C86040150882D34839
:1002C00048618020088327E0CD4884420FD1D04880
:1002D000CB490860CF484860C0140881CD48C86049
:1002E00080140882CB4848614014088314E0C34856
:1002F00084420FD1C848C1490860C8484860C0144A
:100300000881C648C86080140882C4484861401407
:10031000088301E00020C2E72878207769786177B8
:10032000A978A177E978E177A9882184E9886184AF
:10033000A96861622889A085E9896185A9892185E3
:10034000698A2186A969A167E969E167E07F0428D4
:1003500002D10421E18506E0E07F10B90821E185A2
:1003600001E00C21E18500213420015584F856106C
:1003700008A802F054FFA34884422DD10089ADF8AB
:10038000200003208DF8220010208DF823009D49C5
:10039000486808A902F0B8FE9A4A1189506802F02C
:1003A00062FF9848008AADF820009649C86808A9FD
:1003B00002F0AAFE934A118AD06802F054FF9148D5
:1003C000008BADF8200004208DF823008D4948698A
:1003D00008A902F099FE63E0894884422DD1008982
:1003E000ADF8200003208DF8220010208DF82300A6
:1003F0008349486808A902F087FE814A118950683C
:1004000002F031FF7E48008AADF820007C49C868C0
:1004100008A902F079FE7A4A118AD06802F023FF17
:100420007748008BADF8200004208DF82300744934
:10043000486908A902F068FE32E0704884422DD174
:100440000089ADF8200003208DF8220010208DF8DF
:1004500023006A49486808A902F056FE674A1189D4
:10046000506802F000FF6548008AADF8200063493B
:10047000C86808A902F048FE604A118AD06802F0F4
:10048000F2FE5E48008BADF8200004208DF82300BA
:100490005A49486908A902F037FE01E00020FEE64B
:1004A000684600F05DF9207F012805D18DF8000035
:1004B00068788DF8010004E000208DF800008DF8C8
:1004C0000100A8680190698AADF81010E978ADF8CC
:1004D0000E10298AADF80C10E989ADF80A10A98927
:1004E000ADF80810A87D8DF81600E87D8DF817008E
:1004F000A87C8DF81400687D8DF815004148844271
:1005000006D1AFF291200690AFF2A920079015E036
:100510003B48844206D1AFF2D3200690AFF2EB20E5
:1005200007900BE03548844206D1AFF215300690B3
:10053000AFF22D30079001E00020B0E66946206858
:1005400000F036F9ABE610B504460CB9002010BD3A
:100550000120207700213420015584F856102068AE
:1005600000F000FB0120F2E710B504460CB90020B2
:1005700010BD00202077206800F016FB0120F7E76F
:1005800070B504460D460CB9012000E00020217F23
:1005900009B9012100E00021084308B1002070BD25
:1005A0003420005D012818D100BF00BFEFF3108098
:1005B0001B49086072B600BF222204F134012846AC
:1005C00004F000FD00213420015500BF14490868E3
:1005D00080F3108800BF00BF01E00020DFE70120AA
:1005E000DDE730B589B004460D4624B11DB1207F4A
:1005F00008B12878B0B9002009B030BD380100201A
:10060000B80000203800002048020020000C014003
:100610000002002000080140B80100200010014045
:10062000000000202122294604F1560004F0CAFCF3
:10063000A07F48B928788DF800002A78691C0DF150
:10064000010004F0BFFC15E02878C01CC0B28DF892
:100650000000208C00128DF801002020015D8DF833
:1006600002102220015D8DF803102A78691C01A870
:1006700004F0A8FC6946206800F008FBBCE7000015
:1006800010B504460CB9002010BDFE4884421FD1AD
:10069000FD480078FD49097888420DDAFA4A137856
:1006A000FA4A521CD15C206804F0C2F9F64800787E
:1006B000401CF549087051E001213C200155002003
:1006C000F1490870606C002848D0606C804745E0B4
:1006D000EF4884421ED1EC484078EE4909788842C0
:1006E0000DDAE94A5378EB4A521CD15C206804F0D9
:1006F0009FF9E5484078401CE34948702EE001210D
:100700003C2001550020E0494870606C18B3606CD3
:10071000804723E0E04884421ED1DB488078DF49EF
:10072000097888420DDAD84A9378DC4A521CD15CA9
:10073000206804F07DF9D4488078401CD249887044
:100740000CE001213C2001550020CF498870606CED
:1007500008B1606C804701E0002095E7012093E735
:1007600010B504460120207060700220A070201D8A
:1007700004F0CEF84FF4165060600021A181618131
:1007800021812182A078012802D10421E18106E0A3
:10079000A07810B90821E18101E00C21E18103205A
:1007A000207560750020A075E075A061E06110BD46
:1007B00070B58EB004460D4604B115B900200EB0D8
:1007C00070BDB048844203D1B548AE4908600FE01F
:1007D000AF48844203D1B348AD49086008E0AE4851
:1007E000844203D1B048AC49086001E00020E6E74C
:1007F000AD492068884214D1AC4820610015A08220
:10080000AB48A0610F202077A848A0604015A081C8
:10081000A748143820620E2084F824002520207177
:1008200035E0A0492068884215D1A0482061082001
:10083000A0829F481430A061102020779B48A060C0
:100840000420A0819A4828302062112084F82400D6
:10085000262020711BE092492068884215D19548D6
:100860002061C014A08292482838A0610D20207712
:100870009048A0600015A0818D483C3820620C2073
:1008800084F824002720207101E0002097E70DA8BC
:1008900002F0C5FCA089ADF8340003208DF83600C5
:1008A00018208DF837000DA9A06802F02DFCA08A51
:1008B000ADF8340004208DF837000DA9206902F04E
:1008C00023FC287884F82800206A08B1A06918B9A8
:1008D00000212920015502E06978292001552920AD
:1008E000005D18B10121084602F0BDFEA9782A205A
:1008F0000155A9692164E969616400206E490870A5
:100900006E4908706E490870604908706149087046
:10091000624908706B4908706B4908706B49087030
:1009200001213C200155A878012802D10421E98148
:1009300006E0A87810B90821E98101E00C21E981DD
:10094000291D4EC904F12C004EC0291D206803F05A
:1009500076FF2920005D60B9012240F22551206810
:1009600004F005F8012240F22661206803F0FFFF41
:1009700010E0A06908B1012000E00020216A09B15F
:10098000012100E00021084020B10122C02120689F
:1009900004F012F8012240F22441206803F0E7FF3E
:1009A000A06908B1012000E00020216A09B10121FD
:1009B00000E00021084000285ED02920005D0128C9
:1009C0005AD1A06903F0CEFD2068001D02902D4889
:1009D000844203D13848401C03900CE02C488442E8
:1009E00003D13648401C039005E02B48844202D1D5
:1009F0003348401C039000200490202005900020E4
:100A00000690802007900020089009900A904FF4EB
:100A100040500B9000200C9002A9A06903F044FE06
:100A20002021A06903F080FE206A03F09BFD154899
:100A3000844203D11548401C03900CE014488442C2
:100A400003D11448401C039005E01348844202D1AE
:100A50001248401C0390102004902020059002A909
:100A6000206A03F021FE01220221206A03F053FED6
:100A70000021206A03F058FE20798DF80400287DBB
:100A800026E00000B801002008000020B10200208C
:100A900000020020F302002048020020350300205D
:100AA0000048004000440040003801400008014078
:100AB00058000240000C014090020020D2020020A9
:100AC0001403002056030020780300209A0300201E
:100AD0008DF80500687D8DF8060001208DF807006F
:100AE00001A801F06AFF2920005D01280FD194F8C8
:100AF00024008DF80400A87D8DF80500E87D8DF8B0
:100B0000060001208DF8070001A801F056FFA0693A
:100B100008B1012000E00020216A09B1012100E0B4
:100B200000210840A0B12920005D012808D1012141
:100B3000A06903F0E4FD0121206A03F0E0FD07E075
:100B40000021A06903F0DBFD0021206A03F0D7FD3E
:100B50000121206803F0FFFE4021206803F0E3FF3D
:100B600001202CE610B504460CB9002010BD01216F
:100B7000206803F0F0FEA06908B1012000E0002029
:100B8000216A09B1012100E00021084050B129206B
:100B9000005D38B10121A06903F0B1FD0121206A97
:100BA00003F0ADFD0120E1E710B504460CB90020CB
:100BB00010BD0021206803F0CEFE2920005D012831
:100BC00007D10021A06903F09AFD0021206A03F0FB
:100BD00096FD0120ECE770B505460C4605B10CB951
:100BE000002070BD00202070FA48854216D1FA48D6
:100BF0000078012848D100F064FA01202070F748FD
:100C0000007860706278F449891CA01C04F0DAF95D
:100C10000020F149087000F05BFA35E0F0488542A9
:100C200016D1F048007801282ED100F04AFA0120B0
:100C30002070ED48007860706278EA49891CA01C39
:100C400004F0C0F90020E749087000F041FA1BE009
:100C5000E648854216D1E6480078012814D100F014
:100C600030FA01202070E348007860706278E04933
:100C7000891CA01C04F0A6F90020DD49087000F0D2
:100C800027FA01E00020ACE70120AAE770B505468D
:100C90000C4615B10CB1207808B9002070BDCD48C4
:100CA00085422AD190F83C00012825D12078D249EC
:100CB00008702278611CD048401C04F083F9C548B4
:100CC00090F82900012810D1C249086A002103F0D8
:100CD00016FDC94A1178BF4A106A03F025FDBD49C7
:100CE000086A012103F00BFD02E0BA48FFF7C8FCD7
:100CF0000021B84880F83C105DE0B94885422AD10F
:100D000090F83C00012856D12078BC490870227820
:100D1000611CBA48401C04F055F9B14890F829000C
:100D2000012810D1AE49086A002103F0E8FCB34A5B
:100D30001178AB4A106A03F0F7FCA949086A01214F
:100D400003F0DDFC02E0A648FFF79AFC0021A4486E
:100D500080F83C102FE0A54885422AD190F83C004D
:100D6000012828D12078A64908702278611CA4485F
:100D7000401C04F027F99D4890F82900012810D163
:100D80009A49086A002103F0BAFC9D4A1178974AF3
:100D9000106A03F0C9FC9549086A012103F0AFFC11
:100DA00002E09248FFF76CFC0021904880F83C106C
:100DB00001E0002072E7012070E770B504460CB92D
:100DC000002070BD40F22551206803F09FFE0128ED
:100DD00047D12920005D012843D07E48844213D1A9
:100DE000206803F029FEC1B28348401C854A12786E
:100DF000815440F22551206803F095FE8148007827
:100E0000401C804908702CE07548844213D120684A
:100E100003F012FEC1B27948401C7B4A127881541B
:100E200040F22551206803F07EFE77480078401C90
:100E30007549087015E06D48844212D1206803F0AE
:100E4000FBFDC1B26E48401C704A1278815440F2DA
:100E50002551206803F067FE6C480078401C6B4900
:100E600008704021206803F051FE01280AD1292092
:100E7000005D012806D04021206803F054FE204682
:100E8000FFF7FEFB1021206803F040FE01286FD120
:100E90002920005D012853D10021A06903F02FFC17
:100EA0004C48844217D10146886903F03FFCC0F1E9
:100EB0002000544908704948401C46498969C86067
:100EC00044498869202103F02FFC424988690121A7
:100ED00003F015FC34E04248844217D1014688698A
:100EE00003F024FCC0F12000474908703E48401C34
:100EF0003B498969C8603A498869202103F014FC9C
:100F000037498869012103F0FAFB19E03748844228
:100F100016D10146886903F009FCC0F120003B4965
:100F200008703448401C31498969C8602F49886974
:100F3000202103F0F9FB2D498869012103F0DFFB33
:100F40002448844215D12F48007824490870012094
:100F50002149087021480078487020480278411CD7
:100F60001D48801C04F02EF800202649087051E02E
:100F700059E01B48844214D1234800781A4908706C
:100F800001201849087018480078487016480278FF
:100F9000411C1448801C04F015F800201A49087000
:100FA00038E01248844233D118480078114908705B
:100FB00001200F4908700F48007848700D480278EA
:100FC000411C0B48801C03F0FDFF00200F490870F6
:100FD00020E00000B801002056030020900200200D
:100FE0000002002078030020D202002048020020E6
:100FF0009A03002014030020B1020020F302002015
:10100000350300200B0000200C0000200D00002004
:101010000020D6E6206C08B1206C80472068058847
:101020002068858800BF0120CBE610B504460CB9C6
:10103000002010BD2949206A88420FD1202003F0EA
:1010400098FB012837D1202003F088FB0021206A7B
:1010500003F055FB01213C2001552CE01F492831AC
:10106000206A884210D14FF4005003F082FB01281F
:1010700021D1400303F072FB0021206A03F03FFB03
:1010800001213C20015516E014496431206A884250
:101090000FD1800403F06DFB01280CD1400603F052
:1010A0005DFB0021206A03F02AFB01213C20015551
:1010B00001E00020BDE7606C08B1606C8047012052
:1010C000B7E700BFEFF310800549086072B67047BC
:1010D0000349086880F3108800BF70471C00024075
:1010E0000400002010B549480079252802D147485E
:1010F000FFF763FE46480079252802D14448FFF7F0
:101100005CFE44480079252802D14248FFF755FE8D
:1011100010BD10B53D480079262802D13B48FFF7A5
:101120004CFE3B480079262802D13948FFF745FE9E
:1011300038480079262802D13648FFF73EFE10BD18
:1011400010B532480079272802D13048FFF735FE24
:101150002F480079272802D12D48FFF72EFE2D4871
:101160000079272802D12B48FFF727FE10BD10B5C4
:10117000264890F824000C2802D12448FFF755FF98
:10118000234890F824000C2802D12148FFF74DFF96
:10119000204890F824000C2802D11E48FFF745FF94
:1011A00010BD10B5194890F824000E2802D1174838
:1011B000FFF73BFF164890F824000E2802D1144890
:1011C000FFF733FF134890F824000E2802D111488E
:1011D000FFF72BFF10BD10B50C4890F82400112824
:1011E00002D10A48FFF721FF094890F8240011288E
:1011F00002D10748FFF719FF064890F8240011288C
:1012000002D10448FFF711FF10BD0000B801002013
:1012100000020020480200200121017000214170DD
:10122000816042F22831416000210161F649C160CC
:1012300070472DE9F04F8FB004460D4604B11DB93B
:1012400000200FB0BDE8F08FF048844209D1F0488B
:10125000EE49886040208881EE4808600020888040
:101260007CE0ED48844209D1E948EB498860802060
:101270008881E8480860042088806FE0E74884425D
:1012800009D1E348E549886001208881800708602A
:101290000020888062E0E248844209D1DC48E049CD
:1012A000886002208881400708600420888055E01B
:1012B000DC48844209D1D648DA4988600420888114
:1012C000000708600820888048E0D748844209D198
:1012D000CF48D549886008208881C00608600C2066
:1012E00088803BE0D148844209D1D148CF49886009
:1012F00040208881CF480860002088802EE0CE48BA
:10130000844209D1CA48CC49886080208881C94874
:1013100008600420888021E034B90020C749886033
:1013200088810860888019E034B90020C449886049
:1013300088810860888011E034B90020C149886044
:1013400088810860888009E034B90020BE4988603F
:1013500088810860888001E0002072E76978617404
:10136000A9686161287820742969E161E968A1614F
:10137000B6496868B1FBF0F0029004F091FCB44902
:10138000039004F093FB834604F0F6FACDE90401E0
:1013900003F0CCFE074604F05BF81FFA80F9AB4976
:1013A0006868B1FBF0F0B0FBF9F086B266823046B7
:1013B00004F076FC0090A96804F0BAFC83469249D8
:1013C00004F074FB019004F0D7FA0022A14BCDE9A0
:1013D000020103F089FF074603F054FF049003F075
:1013E00013FF059004F024FC1FFA80FA0BA802F00A
:1013F000ABFD701E80B2ADF83000A9F1010080B2E3
:10140000ADF82C000020ADF83200ADF82E000BA98D
:10141000206802F06DFA07A802F09FFD6020ADF889
:101420001C000120ADF81E00ADF822A00002ADF8AE
:101430002800607C10B1022808D103E00020ADF83C
:10144000240004E00220ADF8240000E000BF00BF4B
:10145000A08830B104280DD0082814D00C2824D13D
:101460001AE007A9206802F080FA0821206802F03B
:10147000CBFE1BE007A9206802F0B9FA082120681A
:1014800002F0CBFE12E007A9206802F0FDFA082165
:10149000206802F0CFFE09E007A9206802F03FFBB8
:1014A0000821206802F0CFFE00E000BF00BF01214C
:1014B000206802F079FE06A801F0B1FEA089ADF81F
:1014C000180018208DF81B0001208DF81A0006A9BD
:1014D000A06801F019FE207C012808D101212068B4
:1014E00002F062FDA1880122206802F062FF012063
:1014F000A7E610B504460CB9002010BD01202074E9
:101500000121206802F050FDA1880122206802F02C
:1015100050FF0120F1E710B504460CB9002010BDC2
:1015200000202074A1880022206802F042FF0120E0
:10153000F5E72DE9FC5F0446894614B1207C0128BB
:1015400002D00020BDE8FC9F4846A16904F0BCFC25
:1015500001D2D4F818904846E16904F0B5FB01D2F5
:10156000D4F81C90C4F81490608A04F099FB4946A2
:10157000009004F0DDFB2449019004F097FA8346C3
:1015800004F0FAF907460022324B03F0ADFE05469F
:1015900003F078FE824603F037FE2F490860A088EA
:1015A00030B104280ED0082816D00C2828D11DE010
:1015B0002948006804F03CFB85B22946206802F007
:1015C0008BFF1EE02448006804F032FB85B22946F8
:1015D000206802F083FF14E01F48006804F028FB35
:1015E00085B22946206802F07BFF0AE01A480068AD
:1015F00004F01EFB85B22946206802F073FF00E06C
:1016000000BF00BF01209DE70000C842BC030020CE
:101610000008014000040040DC030020FC0300201F
:101620001C0400203C0400205C0400207C040020FA
:10163000000C0140000800409C040020BC04002075
:10164000DC040020FC0400201C05002000A24A0449
:1016500000FF7F470000E03F1000002070B5044607
:101660000D460CB9002070BDE5611349E06904F036
:101670002BFC01D21049E1610021E06904F024FB58
:1016800001D20021E1610120EDE770B504460D466D
:101690000CB9002070BDA5610749A06904F014FCD5
:1016A00001D20549A1610021A06904F00DFB01D21E
:1016B0000021A1610120EDE70000C84285490160D9
:1016C00085494160012101720021C160002202614F
:1016D0004FF07E5141610021816170472DE9F34F48
:1016E00083B07E4A5169039804F0EEFB02D27B4836
:1016F0004069039079484169794804F019FB05462F
:10170000039904F0E1FB05D274484169744804F080
:101710000FFB0390049804F02FF905460022714B4B
:1017200003F0FEFF02D24FF07E5004906C49049803
:1017300004F0CAFA01D26A480490039804F01CF934
:1017400021F0004105464FF02042674B03F0AEFE0A
:101750000FD20021049804F0B7FA06D8002460489C
:10176000049904F0E5FA81463EE0049C4FF000093C
:101770003AE00021049804F0A7FB1AD8039C0498CF
:1017800004F0FAF821F0004105460022554B03F021
:10179000FDFF07468846039804F0EEF882463A4675
:1017A000434603F0BFFECDE9000103F06BFD814627
:1017B0001AE0049804F0E0F821F000410746002206
:1017C000484B03F0E3FF82468B46039804F0D4F8BD
:1017D000054652465B4603F0A5FECDE9000103F045
:1017E00051FD0446DDF80C903C490868214600F0A4
:1017F00053F93A494868494600F04EF905B0BDE84A
:10180000F08F30B589B00446012514B9002009B025
:1018100030BD684600F06AF81C2221462F4803F0CC
:1018200016FC207A8DF8000000200190606902907B
:10183000A069039029490868694600F067F8012803
:1018400005D126494868694600F060F80546012D33
:1018500004D122480169C068FFF740FF2846D6E757
:1018600010B504464FF07E51204604F02DFB01D206
:101870004FF07E540021204604F026FA00D20024C6
:101880001648446101460868214600F0C1F8134932
:101890004868214600F0BCF810BD10B504464FF072
:1018A0007E51204604F010FB01D24FF07E540021FF
:1018B000204604F009FA00D2002408488461014659
:1018C0000868214600F0C6F804494868214600F03F
:1018D000C1F810BD580500207C0500203C05002003
:1018E000000080BF0000F03F9999A93F10B5044661
:1018F00001202070002060604FF07E50A06000202A
:10190000E06004F11000FFF787FC10BD38B5044615
:101910000D4604B10DB9002038BD8C4884420BD16E
:101920008B488A4988604015888089480861C014BE
:101930008881884808601FE0874884420BD184482A
:1019400085498860801488808148086100158881F5
:101950008248086010E03CB9002081498860888096
:1019600008618881086007E034B900207D498860FB
:101970008880086188810860287820756968A1617D
:10198000A968E161E968216210208DF80300022056
:101990008DF80200A088ADF800006946A06801F04B
:1019A000B3FBA089ADF800006946206901F0ACFBEB
:1019B0006D49E06904F0BCF9E8616B49206A04F004
:1019C000B7F928626849A06904F0B2F9A861207DDE
:1019D000287405F110012068FFF72BFC01209BE71C
:1019E00010B504460CB9002010BD012020752068F8
:1019F000FFF77FFD0120F7E710B504460CB9002082
:101A000010BD002020752068FFF785FD0120F7E755
:101A100070B504460D460CB9002070BDE5614FF06D
:101A20007E51E06904F050FA02D24FF07E51E1613C
:101A30000021E06904F048F901D20021E1614A493E
:101A4000284604F075F9064631462068FFF71DFE6A
:101A50000120E2E770B504460D460CB9002070BDC8
:101A600025624FF07E51206A04F02EFA02D24FF028
:101A70007E5121620021206A04F026F901D2002162
:101A800021623949284604F053F906463146206858
:101A9000FFF7E4FD0120E2E72DE9F04104460D46A1
:101AA00014B90020BDE8F081284603F065FF21F05D
:101AB0000041074603F0E6FB06463046E16904F0C4
:101AC00003FA00D2E6693046216A04F0FDF800D23C
:101AD000266A0021284604F0F7F911D2A188A068EF
:101AE00001F0BFFBA189206901F0BDFB1E49304612
:101AF00004F01EF9074639462068FFF71AFD22E078
:101B00000021284604F0E0F811D2A188A06801F075
:101B1000AAFBA189206901F0A4FB1349304604F017
:101B200007F9074639462068FFF703FD0BE0A18857
:101B3000A06801F096FBA189206901F092FB0021C9
:101B40002068FFF7F6FCA5610120ABE758050020EF
:101B500000140140BC0300207C050020DC030020B1
:101B6000A0050020C40500200000C84210B500F008
:101B700005FB10BD10B500F0F7FA00F0FAFA10BD41
:101B8000704710B500F0FFFA10BD10B500F000FB73
:101B900010BD10B500F001FB10BD00000246002191
:101BA00008E0FE4850F82100904201D108467047F5
:101BB000481CC1B20829F4DBFF20F8E738B5044619
:101BC000606808B1208900B938BD04208DF8030091
:101BD00003208DF802002089ADF800006946606896
:101BE00001F092FA00BFEFE70146887828B94878FB
:101BF00008B9082070470C20FCE78878012805D137
:101C0000487808B90C20F5E70820F3E7487808B9C8
:101C10000820EFE70C20EDE7FEB504460D4616461A
:101C2000E06800B9FEBDE17AA07A01F083FBE068CC
:101C3000019000208DF8080004F11400FFF7D4FF94
:101C40008DF809008DF80A6001A802F0C7FF207C1A
:101C50008DF80000287A8DF80100687A8DF802006E
:101C60008DF80360684600F0A8FE00BFDAE73EB5D5
:101C70000446206800B93EBDE57DC9492068884218
:101C800004D10121102001F008FD07E02068B0F127
:101C9000804F03D10121084601F0FFFC4FF6FF7091
:101CA000ADF80400BF4830F81500ADF80000002082
:101CB000ADF80600ADF802006946206801F018FE94
:101CC0000121206802F070F900BFD4E751B1B64A93
:101CD00012688243B44B1A601A1F126802431B1F1A
:101CE0001A600BE0B04A121F12688243AE4B1B1FF2
:101CF0001A601A1D126802431B1D1A6070472DE9F5
:101D0000FC5F0746082F01DBBDE8FC9FA34850F8A5
:101D10002740A64800EB0715D4F80C80B8F1000F57
:101D200001D0206800B9EFE7404602F0BDFF00B9DE
:101D3000EAE7404602F0C9FF2189606801F077FABE
:101D40008246206802F0E7FB064694F817B09848F0
:101D500050F82B000190A87880B92E80A07D022831
:101D600009D0BAF1000F01D1012000E000200146A6
:101D70004046FFF7ABFF0120A8703FE02888B04243
:101D800003DC2888A6EB000904E0298806F58030EA
:101D9000A0EB0109A07D40B9484603F081FF009007
:101DA000019903F0C5FF686013E0A07D012808D108
:101DB000484603F075FF0090019903F0B9FFA86051
:101DC00007E0484603F06CFF0090019903F0B0FF74
:101DD000686001202873A07D022809D0BAF1000FA5
:101DE00001D1012000E0002001464046FFF76EFFD0
:101DF0000020A870A06908B1A069804700BF83E7F0
:101E0000014609B900207047012008700020487081
:101E100088700320C8700020486003200872487250
:101E20000120F0E770B504460D4604B10DB900205D
:101E300070BD2046FFF7B2FE0646FF2E01D10020FE
:101E4000F6E75C4884420ED1554820605A486060ED
:101E5000022020810420A0720120E0720220E060B4
:101E60000720207479E0554884420ED14FF080401D
:101E7000206053486060012020810020A072E07241
:101E80000120E0600720207467E04E4884420FD1B3
:101E90004FF0804020604A4860600420208100208C
:101EA000A0720220E0720420E0600620207454E05A
:101EB000454884420FD14FF0804020604048606028
:101EC000082020810020A0720320E0720820E0603A
:101ED0000920207441E03D4884420FD14FF08040FA
:101EE000206037486060102020810020A07204200C
:101EF000E0721020E0600A2020742EE03448844212
:101F00000FD14FF0804020602D486060202020815C
:101F10000020A0720520E0722020E06017202074CD
:101F20001BE02C4884420AD10020206060608020A1
:101F300020810020A072E072E06020740DE026484D
:101F400084420AD10020206060604FF480502081DC
:101F50000020A072E072E060207401202075697892
:101F60006175A978A175E978E1756968A1610020BA
:101F70000E4901EB061108800C4901EB061188702F
:101F80000A4901EB06114860084901EB0611886017
:101F9000064901EB0611087309491FE03C6000087F
:101FA00000100040186000080C040140C806002022
:101FB00024600008E8050020001801400406002005
:101FC00000080140200600203C06002058060020A2
:101FD0007406002090060020AC060020606888424D
:101FE00004D10121042001F04BFB22E06E4960681E
:101FF000884204D10121082001F042FB19E06B491D
:102000006068884204D10121102001F039FB10E002
:1020100067496068884204D10121202001F030FB2B
:1020200007E064496068884203D10121402001F043
:1020300027FB0121084601F023FB2046FFF7BEFDE8
:102040002046FFF714FE2A7829462046FFF7E4FDD4
:10205000287820750120EBE6F8B504460CB900207D
:10206000F8BD2046FFF79AFD0546FF2D01D100205F
:10207000F6E7E06808B90020F2E7012020750020AB
:102080004D4901EB051188704B4901EB05110873AF
:1020900004F11400FFF7A8FD0646082E01D1012225
:1020A00000E000221146E068FFF710FEE06802F051
:1020B0000CFE42480068E168084340490860207C03
:1020C0008DF8000000208DF801008DF8020001203D
:1020D0008DF80300684600F070FC0120C0E738B5B9
:1020E00004460CB9002038BDE06808B90020FAE7C2
:1020F0000020207531480068E16888432F49086056
:10210000207C8DF8000000208DF801008DF8020081
:102110008DF80300684600F050FC0120E3E770B53D
:1021200006460D4606B10DB9002070BD3046FFF7DA
:1021300035FD0446FF2C01D10020F6E71E4800EBD8
:102140000410007B28701C4800EB04104068686095
:10215000194800EB04108068A8600020164901EBC4
:10216000041108730120E0E710B50020FFF7C7FD58
:1021700010BD10B50120FFF7C2FD10BD10B5022043
:10218000FFF7BDFD10BD10B50320FFF7B8FD10BD72
:1021900010B50420FFF7B3FD10BD10B50520FFF703
:1021A000AEFD10BD70477047000C014000100140AB
:1021B0000014014000180140C8060020000401403E
:1021C00010B58CB009A92948FFF7A9FF28490A983A
:1021D00003F0AEFD044600942649204603F074FD4A
:1021E00003D201208DF8040002E000208DF80400E5
:1021F0006946042000F05EF80CB010BD1FB5012147
:10220000402001F03DFA0120ADF80C0010208DF8BF
:102210000F0003208DF80E0003A9174800F074FF8B
:102220006846FFF7EDFD00208DF801008DF80200F3
:1022300003208DF80300AFF27700019069460B4848
:10224000FFF7F0FD0948FFF707FF1FBD10B501229A
:102250001146094801F009F80A2002F03FFE002269
:102260000121054801F001F810BD0000E80500203B
:1022700096438B3C0000F041001801400021374A92
:10228000916400223549CA640021344A117082F8F1
:1022900022100022314981F84420002007E04FF449
:1022A00080622E49243121F81020411CC8B2102828
:1022B000F5DB704770B505460C460CB9002070BDC3
:1022C00035B1012D0AD0022D0DD0032D18D111E00A
:1022D00022222146214802F0BAFE12E020781F494E
:1022E00081F822000DE0222221461C48243002F011
:1022F000AEFE06E01948D4E90012C0E9121200E06F
:1023000000BF00BF0120DAE770B505460C460CB9E6
:10231000002070BD35B1012D0AD0022D0DD0032D46
:1023200018D111E022220D49204602F090FE12E061
:102330000A4890F8220020700DE02222074924313B
:10234000204602F084FE06E00449D1E91201C4E906
:10235000000100E000BF00BF0120DAE748070020CD
:1023600010B5024609B9012000E000200C780F2CBE
:1023700001D0012400E0002420430C7E0CB1012494
:1023800000E00024204308B1002010BDC87D82F881
:10239000200048788C7840EA0420C0F30A001080BE
:1023A000C87840018C7840EAE400C0F30A0050800D
:1023B000487980020C7940EA8400CC7840EAA41085
:1023C000C0F30A0090808879C0014C7940EA64002B
:1023D000C0F30A00D080C87900018C7940EA24104B
:1023E000C0F30A001081487A40020C7A40EA4400A7
:1023F000CC7940EAE410C0F30A005081887A800169
:102400004C7A40EAA400C0F30A009081C87AC00068
:102410008C7A40EA6410D081087B4C7B40EA04202F
:10242000C0F30A001082887B40014C7B40EAE40044
:10243000C0F30A005082087C8002CC7B40EA840012
:102440008C7B40EAA410C0F30A009082487CC00153
:102450000C7C40EA6400C0F30A00D082887C000152
:102460004C7C40EA2410C0F30A001083087D40022F
:10247000CC7C40EA44008C7C40EAE410C0F30A00C3
:102480005083487D80010C7D40EAA400C0F30A001F
:102490009083887DC0004C7D40EA6410D083002387
:1024A0000AE032F81300B0F5006F03DB40F2FF7072
:1024B00022F81300581CC3B2102BF2DB012064E792
:1024C00010B588B002460B4613B9002008B010BD05
:1024D0000F2010700020107693F82000D075002196
:1024E00007E033F81100C0F30A002DF81100481C72
:1024F000C1B21029F5DBBDF800005070BDF8000036
:102500000012BDF8024040EAC4009070BDF802001D
:102510004011BDF8044040EA8410D070BDF80400BA
:10252000C0F387001071BDF804008012BDF80640AA
:1025300040EA44005071BDF80600C011BDF80840E3
:1025400040EA04109071BDF808000011BDF80A407F
:1025500040EAC410D071BDF80A00C0F34700107201
:10256000BDF80A004012BDF80C4040EA84005072E9
:10257000BDF80C008011BDF80E4040EA4410907286
:10258000BDF80E00C0F3C700D072BDF81000107384
:10259000BDF810000012BDF8124040EAC4005073AC
:1025A000BDF812004011BDF8144040EA8410907349
:1025B000BDF81400C0F38700D073BDF8140080127A
:1025C000BDF8164040EA44001074BDF81600C01172
:1025D000BDF8184040EA04105074BDF8180000110E
:1025E000BDF81A4040EAC4109074BDF81A00C0F358
:1025F0004700D074BDF81A004012BDF81C4040EAF4
:1026000084001075BDF81C008011BDF81E4040EA22
:1026100044105075BDF81E00C0F3C700907501202E
:1026200054E7000010B500F001F900F037F900F0B0
:10263000ABF810BD7047704770477047704710B5D2
:10264000FFF704FE10BD704710B500F0ABFE4FF46D
:10265000803000F0C7FE00F004FF0446012C24D1B6
:10266000102000F027FA022000F010FA002000F0FD
:102670003EFF002000F04DFFA00200F041FF4FF4AC
:10268000E011200400F016FF012000F01FFF00BF42
:10269000392000F0CAFE0028FAD0022000F019FF0D
:1026A00000BF00F01FFF0828FBD1012000F06EFFE3
:1026B00000BF612000F0B9FE0028FAD001210420FB
:1026C00000F0DEFF0121082000F0DAFF01211020D8
:1026D00000F0D6FF0121202000F0D2FF0121402090
:1026E00000F0CEFF0121084600F0CAFF0121084694
:1026F00000F0D3FF0121022000F0CFFF0121880369
:1027000000F0BEFF0121084600F0ADFF10BD8EB005
:10271000FFF79AFF02F0E2FAFFF770FD00F053F8BE
:1027200000F028F8AFF203100590AFF2F700069022
:10273000AFF2FD000790AFF2FF000990AFF2051075
:102740000A90AFF207100B90AFF20D100C90AFF2A1
:1027500009100D90142209A9684602F078FC05A81A
:102760000FC802F06FFB02F08AFB01E002F0EEFA04
:10277000FCE7704700B587B06846FEF79FFF6846E4
:10278000FFF73FF807B000BD00B589B069460320E8
:10279000FFF7BAFDDDE90001FEF7A0FF09B000BDBB
:1027A000704700B589B069463A48FDF7E9FE01284F
:1027B00007D19DF80000012803D169460020FFF7EA
:1027C00079FD09B000BD00B589B001A8FDF7FEFC98
:1027D00001208DF804008DF8050000208DF8180008
:1027E00003208DF8190000208DF81A0003208DF8C1
:1027F0001B004FF4E13003900020ADF81400ADF859
:102800001600ADF81200ADF810008DF80600042097
:102810008DF80700AFF275000790AFF27B000890CB
:1028200001A91C48FDF734FD09B000BD00B593B007
:102830000AA90020FFF768FD9DF82800012815D19E
:102840009DF82900192811D19DF82A000F280DD1D3
:102850000AA8807E50B900208DF8040001A901204B
:10286000FFF728FD00200C49087004E00A480078B2
:10287000401C0949087008480078F02808DDF0205D
:102880000549087001208DF8040001A9FFF712FD29
:1028900013B000BD380000201400002010B5AEB009
:1028A00000208DF870008DF84C0013A90120FFF76F
:1028B0002BFD9DF84C00012803D1002001900290CF
:1028C0004CE01CA90020FFF71FFD00208DF87000D0
:1028D0001CA9FFF7EFFC0DF172010AA8FFF740FDFC
:1028E0000AA90220FFF7E6FCBDF82A10A1F58060D6
:1028F00003F0BEF904464FF0894103F0D7F8019088
:10290000BDF82C10A1F5806003F0B2F904464FF039
:10291000894103F0CBF80290BDF84000B0F5806F1C
:102920000BDD4FF08041019803F0C0F801904FF0AB
:102930008041029803F0BAF8029025A90420FFF71D
:10294000E3FC9DF89800012808D10021019803F0CC
:10295000BBFA01D2002001900020029001A90320BF
:10296000FFF7A8FC2EB010BD70470B4880470B49FD
:1029700081F308880A480047FEE7FEE7FEE7FEE726
:10298000FEE7FEE7FEE7FEE7FEE7FEE7054806494D
:10299000044A064B704700006929000860100020B7
:1029A000310100086008002060100020600800204D
:1029B00031490143314A1160704770B5002100234D
:1029C0000F22C47804B32D4C246804F4E064C4F5E9
:1029D000E064210AC1F10403CA40447804FA03F117
:1029E0008478144021430901254C0678A1550478C8
:1029F00004F01F050124AC4005786D11AD0005F110
:102A0000E025C5F8004109E0047804F01F05012421
:102A1000AC401C4D0678761145F8264070BD1A4A28
:102A20000A400243154B1B1F1A60704739B1134A05
:102A3000121D12680243114B1B1D1A6006E00F4A5B
:102A4000121D126882430D4B1B1D1A60704704282B
:102A500008D14FF0E021096941F004014FF0E02274
:102A6000116107E04FF0E021096921F004014FF006
:102A7000E0221161704700000000FA050CED00E053
:102A800000E400E080E100E080FFFF1F014600203D
:102A9000FE4A106800F03800084310607047FB4998
:102AA000096821F00801F94A1160114609680143DB
:102AB00011607047F549096821F01001F34A11606F
:102AC00011460968014311607047F148EF494860B9
:102AD000F04848607047EE48EC494860ED4848606F
:102AE0007047EA48006940F08000E8490861704793
:102AF000E648006940F08000E4490861704704201E
:102B0000E249C96801F0010109B101200EE0DF4985
:102B1000C96801F0040109B1022007E0DB49C96876
:102B200001F0100109B1032000E00420704700B556
:102B300002460423FFF7E3FF034603E0FFF7DFFF4E
:102B40000346521E012B01D1002AF7D102B90523F9
:102B5000184600BD30B5044604254FF43020FFF779
:102B6000E6FF0546042D17D1C848006940F0020071
:102B7000C649086108464461006940F040000861A8
:102B80004FF43020FFF7D3FF0546C048006941F6F7
:102B9000FD710840BD490861284630BD10B50424C8
:102BA0004FF43020FFF7C3FF0446042C16D1B7487A
:102BB000006940F00400B54908610846006940F02A
:102BC000400008614FF43020FFF7B1FF0446AF48E2
:102BD000006941F6FB710840AC490861204610BD10
:102BE00000B502460423FFF78AFF034603E0FFF720
:102BF00086FF0346521E012B01D1002AF7D102B9EC
:102C00000523184600BD10B504244FF43020FFF70B
:102C1000E7FF0446042C16D19C48006940F00400EC
:102C20009A4908610846006940F0400008614FF485
:102C30003020FFF7D5FF04469448006941F6FB7148
:102C4000084092490861204610BD00208F49C9699B
:102C500001F0020109B1012000E00020704730B509
:102C6000A5250424FFF7F1FF00B100254FF4302023
:102C7000FFF75DFF0446042C3AD1854883498860FC
:102C8000844888600846006940F0200008610846D2
:102C9000006940F0400008614FF43020FFF747FF23
:102CA0000446042C1BD17948006941F6DF710840C5
:102CB000764908610846006940F0100008617648CE
:102CC0000580E002FFF733FF0446052C10D06F4863
:102CD000006941F6EF7108406C49086108E0052C75
:102CE00006D06A48006941F6EF71084067490861FB
:102CF000204630BD78B506460C46042500200090DD
:102D0000E802FFF714FF0546042D24D15F4800694F
:102D100040F001005D4908613480E802FFF707FFD9
:102D20000546042D10D1B01C0090200C009908809D
:102D3000E802FFF7FCFE05465448006941F6FE71C3
:102D400008405249086106E05048006941F6FE71AA
:102D500008404E490861284678BD70B504460D46C6
:102D60000426F002FFF7E3FE0646042E11D1474881
:102D7000006940F00100454908612580F002FFF735
:102D8000D6FE06464148006941F6FE7108403F49BB
:102D90000861304670BD70B505460E460424E00259
:102DA000FFF7C5FE0446042C17D13948374988601F
:102DB000384888600846006940F0100008612E809D
:102DC000E002FFF7B4FE0446052C06D02F48006948
:102DD00041F6EF7108402D490861204670BD2DE98C
:102DE000F04304464FF6FF763746B046B146042519
:102DF000E443E6B2C4F30727C4F307484FEA146973
:102E0000E802FFF794FE0546042D49D120481F49EA
:102E10008860204888600846006940F0100008611A
:102E2000FF2E06D01C4808300680E802FFF77FFE20
:102E30000546042D08D1FF2F06D017480A30078019
:102E4000E802FFF774FE0546042D0AD1B8F1FF0F22
:102E500007D011480C30A0F80080E802FFF767FEA9
:102E60000546042D0AD1B9F1FF0F07D00A480E30EC
:102E7000A0F80090E802FFF75AFE0546052D0FD096
:102E80000248006941F6EF71084007E00020024067
:102E900023016745AB89EFCD00F8FF1F6649086144
:102EA0002846BDE8F08330B5054604244FF43020B1
:102EB000FFF73DFE0446042C41D160485E4988601E
:102EC0005F4888600846006940F0200008610846B5
:102ED000006940F0400008614FF43020FFF727FE02
:102EE0000446042C22D15448006941F6DF710840A1
:102EF000514908610846006940F0100008611DB1A1
:102F000000205049088002E0A5204E4908804FF477
:102F10003020FFF70CFE0446052C10D0464800690F
:102F200041F6EF7108404449086108E0052C06D0DD
:102F30004148006941F6DF7108403F490861204679
:102F400030BDF0B505460E46174604243B483A49C5
:102F500088603B488860E002FFF7E9FD0446042CE6
:102F600019D13548006940F010003349086147F035
:102F7000F800304328433349891C0880E002FFF7FA
:102F8000D6FD0446052C06D02B48006941F6EF71AA
:102F90000840294908612046F0BD2748C0698008DB
:102FA00070472548006A704700202349096801F0EE
:102FB000200109B1012000E00020704729B11E4A1C
:102FC000126902431C4B1A6104E01B4A12698243D6
:102FD000194B1A61704701460020012908D1164A91
:102FE000D26902F001020AB1012008E0002006E0E7
:102FF000114AD2680A400AB1012000E0002070475F
:103000000D49C860704704200B49C96801F00101EF
:1030100009B101200EE00849C96801F0040109B1B5
:10302000022007E00449C96801F0100109B103203A
:1030300000E00420704700000020024023016745A3
:10304000AB89EFCD00F8FF1F10B50446CC48844291
:1030500008D10121042000F02DFB0021042000F004
:1030600029FB46E0C748844208D10121082000F02E
:1030700021FB0021082000F01DFB3AE0C2488442F9
:1030800008D10121102000F015FB0021102000F0D4
:1030900011FB2EE0BD48844208D10121202000F020
:1030A00009FB0021202000F005FB22E0B848844203
:1030B00008D10121402000F0FDFA0021402000F05D
:1030C000F9FA16E0B348844208D10121802000F0CB
:1030D000F1FA0021802000F0EDFA0AE0AE488442C7
:1030E00007D10121801500F0E5FA0021A01500F0BC
:1030F000E1FA10BD10B50121084600F0DBFA00210D
:10310000012000F0D7FA10BD2DE9F041024600255C
:103110000026002000230024002791F803C00CF0B3
:103120000F0591F803C00CF0100CBCF1000F03D098
:1031300091F802C04CEA050591F800C0BCF1000FFF
:1031400031D0146800202BE04FF0010C0CFA00F392
:10315000B1F800C00CEA03069E4220D183004FF074
:103160000F0C0CFA03F7BC4305FA03FC4CEA040409
:1031700091F803C0BCF1280F06D14FF0010C0CFAF6
:1031800000FCC2F814C00AE091F803C0BCF1480F7B
:1031900005D14FF0010C0CFA00FCC2F810C0401C25
:1031A0000828D1D31460B1F800C0BCF1FF0F34DDA2
:1031B000546800202EE000F1080C4FF0010808FAD6
:1031C0000CF3B1F800C00CEA03069E4221D1830043
:1031D0004FF00F0C0CFA03F7BC4305FA03FC4CEA62
:1031E000040491F803C0BCF1280F05D100F1080CCC
:1031F00008FA0CF8C2F8148091F803C0BCF1480F2B
:1032000007D100F1080C4FF0010808FA0CF8C2F8D9
:103210001080401C0828CED35460BDE8F0814FF6E2
:10322000FF710180022181700421C1707047024644
:10323000002093680B400BB1012000E00020704794
:103240000146886880B2704702460020D3680B4070
:103250000BB1012000E0002070470146C86880B231
:10326000704701617047416170470AB1016100E038
:1032700041617047C16070474FF480320A438261F8
:103280008161826182698269704702460020434BF6
:1032900018684FF68073184040EA021008433F4B0D
:1032A000186070473E49C8617047F0B50A46002370
:1032B00000240021002500F00046B6F1004F02D1A5
:1032C000364EF16901E0354E7168C0F3034583B2B3
:1032D00000F44016B6F5401F08D121F070612F4E62
:1032E000766826F070662D4F7E6012E000F480163E
:1032F000B6F5801F06D1032606FA05F4A14341F076
:10330000706106E0460D360103FA06F6B14341F05E
:10331000706122B1460D360103FA06F6314300F022
:103320000046B6F1004F02D11C4EF16101E01B4E88
:103330007160F0BD30B500228B071C0F0F2303FA1C
:1033400004F2164B08338C1053F824309343134C7B
:1033500008348D1044F8253023468C1053F824305F
:103360008C07240F00FA04F423430C4C08348D100E
:1033700044F8253030BD0A49DC3108607047000050
:1033800000080140000C0140001001400014014001
:1033900000180140001C01400020014000000140D5
:1033A00000002042DF48006840F00100DD4908606D
:1033B00008464068DC490840DA4948600846006829
:1033C000DA490840D74908600846006820F48020A0
:1033D00008600846406820F4FE0048604FF41F0073
:1033E00088607047CF49096821F48031CD4A116067
:1033F0001146096821F480211160B0F5803F03D0A7
:10340000B0F5802F0ED106E0C649096841F480313D
:10341000C44A116007E0C349096841F4A021C14AC8
:10342000116000E000BF00BF704710B501460022E8
:10343000002300204A11012A02D1BA4C236806E079
:10344000022A02D1B74C236A01E0B64C636A01F04C
:103450001F02012494401C400CB1012000E0002018
:1034600010BD38B5002000900024002500BF312099
:10347000FFF7DBFF05460098401C00900098B0F570
:10348000A06F01D0002DF2D03120FFF7CEFF08B1A0
:10349000012400E00024204638BD01460020A14A56
:1034A000106820F0F80040EAC10010607047A049A1
:1034B00008607047024600209A4B586820F47C1040
:1034C00042EA01031843974B5860704798490866D1
:1034D000704701460020934A506820F003000843DB
:1034E000506070478F48406800F00C0070470146FC
:1034F00000208C4A506820F0F0000843506070476C
:1035000001460020874A506820F4E060084350607C
:10351000704701460020834A506820F4605040EA1A
:10352000C1005060704729B17E4A527A02437D4BF8
:103530005A7204E07B4A527A82437A4B5A7270473D
:103540007B49D8310860704701460020754A5068B1
:1035500020F440400843506070470021714A2032F7
:103560001170704A82F82010012802D004280AD174
:1035700004E001216B4A2032117005E00521694AFF
:103580002032117000E000BF00BF70476949086039
:1035900070476449096A0143624A1162704765498C
:1035A00044390860704730B5002100220024002310
:1035B0005C4D6D6805F00C0121B1042905D0082986
:1035C00023D105E05C4D056022E05B4D05601FE006
:1035D000544D6D6805F47012524D6D6805F48034D9
:1035E000022505EB92421CB9544D554305600BE092
:1035F0004C4D6D6805F400351DB1504D55430560C7
:1036000002E04D4D5543056002E04B4D056000BFA3
:1036100000BF444D6D6805F0F0010909484D6B5C31
:103620000568DD4045603F4D6D6805F4E061090ABD
:10363000434D6B5C4568DD4085603A4D6D6805F42F
:103640006051C90A3E4D6B5C4568DD40C560354D33
:103650006D6805F44041890B3A4D6B5CC568B5FB5C
:10366000F3F5056130BD29B12E4A526902432D4B55
:103670005A6104E02B4A526982432A4B5A617047CF
:1036800029B1284A92690243264B9A6104E0254AEF
:1036900092698243234B9A61704729B1214AD269CA
:1036A0000243204BDA6104E01E4AD26982431D4B7B
:1036B000DA61704729B11B4AD2680243194BDA60BC
:1036C00004E0184AD2688243164BDA60704729B189
:1036D000144A12690243134B1A6104E0114A126939
:1036E0008243104B1A617047124940390860704795
:1036F0000F49C86470470B49C87170470948406A50
:1037000040F0807007494862704701460020054A32
:1037100092680A400AB1012000E000207047014988
:1037200088727047001002400000FFF8FFFFF6FEAD
:10373000000042428004424200127A0000093D002B
:10374000150000202500002010B50446FE488442E4
:1037500008D10121C014FFF7ADFF0021E014FFF7ED
:10376000A9FFC4E0B4F1804F08D101210846FFF75A
:10377000AEFF00210120FFF7AAFFB8E0F348844222
:1037800008D101210220FFF7A2FF00210220FFF74C
:103790009EFFACE0EE48844208D101210420FFF7EF
:1037A00096FF00210420FFF792FFA0E0E948844241
:1037B00008D101210820FFF78AFF00210820FFF728
:1037C00086FF94E0E448844208D101211020FFF7ED
:1037D0007EFF00211020FFF77AFF88E0DF48844257
:1037E00008D101212020FFF772FF00212020FFF7E0
:1037F0006EFF7CE0DA48844208D101214014FFF7D3
:1038000059FF00216014FFF755FF70E0D54884424E
:1038100009D10121C804FFF74DFF00214FF400201A
:10382000FFF748FF63E0D048844209D10121080531
:10383000FFF740FF00214FF48010FFF73BFF56E0F9
:10384000CA48844209D101214805FFF733FF00210E
:103850004FF40010FFF72EFF49E0C548844208D11D
:1038600001214020FFF733FF00214020FFF72FFF09
:103870003DE0C048844208D101218020FFF727FFA6
:1038800000218020FFF723FF31E0BB48844208D1AC
:1038900001218015FFF71BFF0021A015FFF717FF7F
:1038A00025E0B648844209D101210804FFF702FF50
:1038B00000214FF48030FFF7FDFE18E0B04884424D
:1038C00009D101214804FFF7F5FE00214FF4003033
:1038D000FFF7F0FE0BE0AB48844208D101218804D9
:1038E000FFF7E8FE00214FF48020FFF7E3FE10BD54
:1038F00000220288944B98420ED0994B98420BD0EC
:10390000B0F1804F08D0914B984205D0904B98422F
:1039100002D0904B984204D14FF68F731A404B88D7
:103920001A438D4B984207D08C4B984204D04FF6E7
:10393000FF431A40CB881A4302808B8883850B880B
:103940000385814B98420BD0854B984208D08B4B16
:10395000984205D08A4B984202D08A4B984201D1B6
:103960000B7A038601238382704770B500240022FE
:103970000023058C4FF6FE7635400584028C838843
:10398000048B4FF68F752C40B51E2C400D882C43B0
:10399000751E2A400D892A434D882A436A4DA84244
:1039A0000BD06F4DA84208D0744DA84205D0744D7D
:1039B000A84202D0734DA84213D14FF6F7752A40A2
:1039C0004D892A434FF6FB752A408D882A434FF6CE
:1039D000FF652B404FF6FF552B408D892B43CD893A
:1039E0002B4383800483CD888586028470BD70B5A7
:1039F000002400220023058C4FF6EF763540058425
:103A0000028C8388048B48F6FF752C404FF6FF45E7
:103A10002C400D884FF6FF7606EA05252C434FF61D
:103A2000DF752A400D8906EA05152A434D8806EA06
:103A300005152A43444DA84202D0494DA8421DD144
:103A40004FF67F752A404D894FF6FF7606EA051539
:103A50002A434FF6BF752A408D8806EA05152A438A
:103A60004FF6FF352B404FF2FF752B408D8906EA4C
:103A700085052B43CD8906EA85052B438380048386
:103A8000CD880587028470BD70B500240022002314
:103A9000058C4FF6FF6635400584028C8388848B45
:103AA0004FF68F752C404FF6FC752C400D882C433B
:103AB0004FF6FF552A400D894FF6FF7606EA052599
:103AC0002A434D8806EA05252A431F4DA84202D005
:103AD000234DA8421DD14FF2FF752A404D894FF664
:103AE000FF7606EA05252A434FF6FF352A408D88E2
:103AF00006EA05252A434EF6FF752B404DF6FF7565
:103B00002B408D8906EA05152B43CD8906EA05155C
:103B10002B4383808483CD888587028470BD70B5F4
:103B2000002200230024058C4EF6FF7635400584E4
:103B3000038C8488828B48F6FF752A404FF6FF4538
:103B40002A400D8820E00000002C014000040040C5
:103B500000080040000C004000100040001400402D
:103B600000340140004C014000500140005401402D
:103B700000180040001C00400020004000400140B0
:103B800000440140004801404FF6FF7606EA052553
:103B90002A434DF6FF752B400D8906EA05352B4368
:103BA0004D8806EA05352B43FA4DA84202D0FA4D5E
:103BB000A84208D14BF6FF752C408D894FF6FF7651
:103BC00006EA85152C4384808283CD88A0F8405076
:103BD000038470BD828B4FF2FF331A408283828B45
:103BE0004FF6FF7303EA01231A4382837047F0B54F
:103BF0000C461546002200210026078C4EF6FF7C5D
:103C000007EA0C070784828B018C4FF6FF7707EADF
:103C1000043640F6FF473A404FF6FF7707EA05279C
:103C20003A434FF6FF7707EA03373A43D94FB84292
:103C30000ED0D94FB8420BD0B0F1804F08D0D74F3B
:103C4000B84205D0D64FB84202D0D64FB84206D1BE
:103C50004DF6FF77394046F48057394305E047F683
:103C6000FF57394044F48057394382830184F0BDC3
:103C7000828B4FF6F3731A408283828B0A438283CE
:103C80007047F0B50C461546002200210026078C2F
:103C90004FF6FF6C07EA0C070784828B018C4FF606
:103CA000FF7707EA04264FF60C773A404FF6FF7786
:103CB00007EA03172F433A43B64FB8420ED0B64F28
:103CC000B8420BD0B0F1804F08D0B44FB84205D005
:103CD000B34FB84202D0B34FB84206D14FF6FF57A8
:103CE000394046F48077394305E04FF2FF573940B9
:103CF00044F48077394382830184F0BD028B4FF214
:103D0000FF331A400283028B4FF6FF7303EA01234D
:103D10001A4302837047F0B50C4615460022002175
:103D20000026078C4FF6EF7C07EA0C070784028B0E
:103D3000018C4FF6FF7707EA041640F6FF473A403A
:103D40004FF6FF7707EA03373A434FF6FF7707EA64
:103D500005273A438F4FB8420ED08F4FB8420BD051
:103D6000B0F1804F08D08D4FB84205D08C4FB8428B
:103D700002D08C4FB84206D14FF6DF77394046F07B
:103D80001007394305E04FF65F77394044F01007DC
:103D9000394302830184F0BD028B4FF6F3731A405E
:103DA0000283028B0A4302837047F0B50C46154626
:103DB00000220021068C4FF6FE773E400684028BDF
:103DC000018C4FF60C7632407E1C06EA03162E4319
:103DD0003243704EB0420ED06F4EB0420BD0B0F1B5
:103DE000804F08D06D4EB04205D06D4EB04202D02B
:103DF0006C4EB04206D14FF6FD76314044F00106DC
:103E0000314305E04FF6F576314044F00106314389
:103E100002830184F0BD70B505460C465D488542BD
:103E20000ED05D4885420BD0B5F1804F08D05B487D
:103E3000854205D05A48854202D05A48854200D171
:103E400000E000BF208850B92389A28861882846F5
:103E5000FFF7ABFFE1882846FFF79EFF25E02088AB
:103E600004280AD12389A28861882846FFF753FFD6
:103E7000E1882846FFF742FF17E0208808280AD18A
:103E80002389A28861882846FFF7FBFEE18828463F
:103E9000FFF7EEFE09E02389A28861882846FFF734
:103EA000A6FEE1882846FFF795FE70BD2DE9F0419A
:103EB00005460C4600260127608808B9022600E066
:103EC0000026A088012801D1022700E001272088D0
:103ED000A0B92389A28861882846FFF766FFE18898
:103EE0002846FFF759FF23893A4631462846FFF70F
:103EF00012FFE1882846FFF701FF13E02389A2881B
:103F000061882846FFF707FFE1882846FFF7F6FE9D
:103F100023893A4631462846FFF747FFE18828467D
:103F2000FFF73AFFBDE8F0810A884B881A438B8877
:103F30001A43CB881A430B891A434B891A438B893E
:103F40001A43A0F8442070474FF6FF71818000218A
:103F50000180C18041800172704700210180418051
:103F60008180C180018141818181C18170470021AF
:103F700001804180012181800021C1800181704741
:103F80000021018041808180C18001814181818146
:103F900070470000002C0140003401400004004044
:103FA00000080040000C004021B1028842F00102EC
:103FB000028004E002884FF6FE731A4002807047C8
:103FC00031B1B0F8442042F40042A0F8442005E0AA
:103FD000B0F84420C2F30E02A0F8442070471AB192
:103FE00083890B43838102E083898B4383817047FC
:103FF0008182704741EA0203A0F8483070471AB145
:1040000083890B43838102E083898B4383817047DB
:1040100001894FF6F8721140018170470A4600216C
:1040200001894FF68F73194011430181704730B5F4
:1040300004460D4629462046FFF7F0FF208940F050
:104040000700208130BD2DE9F04104460D4616469B
:104050001F46602D06D13B46012231462046FFF720
:104060005AFE05E03B46012231462046FFF79DFE01
:1040700029462046FFF7D2FF208940F00700208123
:10408000BDE8F08130B50C4600210189C9B24FF678
:10409000FF7505EA0325154325432943018130BDFA
:1040A0002DE9F04105460E46174698460024434642
:1040B0003A4631462846FFF7E5FF2C894FF6F8705F
:1040C000044044F007044FF68F70044044F070043D
:1040D0002C81BDE8F081F0B504460D4616461F461A
:1040E0003B46324629462046FFF7CCFF208940F464
:1040F00080402081F0BD0185828270470A46002100
:1041000001884FF68F731940114301807047F0B555
:104110000C4615461E460021002200230189028B11
:10412000038C4FF6F877394021434FF6FC473A406D
:1041300040F201173A434FF6DD773B404FF6FF77E9
:1041400007EA06172F433B43018102830384F0BD36
:104150000A460021018B4FF68F73194011430183EA
:1041600070470A460021018B48F6FF7319404FF64D
:10417000FF7303EA02231943018370470A460021B3
:10418000818B4FF68F7319401143818370470A4624
:104190000021818B48F6FF7319404FF6FF7303EA45
:1041A000022319438183704721B1028842F08002C3
:1041B000028004E002884FF67F731A400280704745
:1041C00021B1828842F00402828004E082884FF6A6
:1041D000FB731A408280704721B1828842F0080246
:1041E000828004E082884FF6F7731A40828070471D
:1041F00021B1828842F00102828004E082884FF679
:10420000FE731A40828070470A460021018B4FF6E8
:10421000F77319401143018370470A460021018B4F
:104220004FF2FF7319404FF6FF7303EA022319435D
:10423000018370470A460021818B4FF6F7731940BE
:104240001143818370470A460021818B4FF2FF732F
:1042500019404FF6FF7303EA022319438183704725
:104260000A460021018B4FF6FB731940114301836D
:1042700070470A460021018B4FF6FF3319404FF675
:10428000FF7303EA02231943018370470A460021A2
:10429000818B4FF6FB7319401143818370470A46A7
:1042A0000021818B4FF6FF3319404FF6FF7303EA6D
:1042B00002231943818370470A460021018B4FF680
:1042C0007F7319401143018370470A460021018B17
:1042D000C1F30E014FF6FF7303EA02231943018372
:1042E00070470A460021818B4FF67F7319401143B6
:1042F000818370470A460021818BC1F30E014FF67E
:10430000FF7303EA02231943818370470A460021A1
:10431000018C4FF6FD7319401143018470470A4622
:104320000021018C4FF6F773194011430184704747
:104330000A460021018C4FF6DF7319404FF6FF73D8
:1043400003EA02131943018470470A460021018CD5
:104350004FF67F7319404FF6FF7303EA02131943B8
:10436000018470470A460021018C4FF6FF53194023
:104370004FF6FF7303EA02231943018470470A468C
:104380000021018C4FF2FF7319404FF6FF7303EACF
:1043900002231943018470470A460021018C4DF61F
:1043A000FF7319404FF6FF7303EA02331943018488
:1043B000704730B5002301248C40A3B2048C9C4389
:1043C0000484048C02FA01F5ADB22C43048430BDA0
:1043D00030B5002304248C40A3B2048C9C43048495
:1043E000048C02FA01F5ADB22C43048430BD70B5E3
:1043F0000346002000241846183001258D40ACB239
:104400001D8CA5431D8409B1082909D100EB610069
:10441000056825F0700505600568154305600EE028
:104420000D1FC5F34E052844056825F4E0450560D9
:1044300005684FF6FF7606EA02263543056070BD33
:1044400021B1028842F00202028004E002884FF6A5
:10445000FD731A400280704721B1028842F00402C5
:10446000028004E002884FF6FB731A400280704716
:1044700021B1828842F08002828004E082884FF677
:104480007F731A408280704702884FF6F7731A4094
:10449000028002880A430280704782884FF68F7339
:1044A0001A40828082880A438280704702894FF6D0
:1044B000F8731A40028102890A4302817047028917
:1044C0004FF67F731A40028102890A4302817047C6
:1044D0008184704781857047818670470187704766
:1044E00081877047A0F84010704702884FF6FF435D
:1044F0001A40028002880A43028070470146888E73
:1045000070470146088F70470146888F7047014603
:10451000B1F8400070470146888C70470146088D0D
:10452000704702460020138A0B400BB1012000E0C7
:1045300000207047CA430282704730B5024600200F
:1045400000230024158A05EA0103958905EA010480
:1045500013B10CB1012000E0002030BDCA4302823B
:104560007047000001684FF6FE72114001600021A3
:10457000016041608160C1608D49884208D18C49E9
:104580000839496841F00F01894A083A51608AE0C8
:1045900087491431884208D185490839496841F072
:1045A000F001834A083A51607DE081492831884210
:1045B00008D17F490839496841F470617C4A083A5A
:1045C000516070E07A493C31884208D17849083915
:1045D000496841F47041764A083A516063E0744991
:1045E0005031884208D172490839496841F4702134
:1045F0006F4A083A516056E06D496431884208D1EB
:104600006B490839496841F47001694A083A5160B8
:1046100049E067497831884208D1654908394968D5
:1046200041F07061624A083A51603CE06149884259
:1046300006D1011F096841F00F01021F116032E02D
:104640005C491431884208D15A49091F096841F070
:10465000F001584A121F116025E05649283188425E
:1046600008D15449091F096841F47061514A121F69
:10467000116018E04F493C31884208D14D49091F6B
:10468000096841F470414B4A121F11600BE049491F
:104690005031884207D14749091F096841F4702108
:1046A000444A121F1160704710B50022026847F695
:1046B000F0739A430C6A8B6823430C6923434C695B
:1046C00023438C692343CC6923434C6A23438C6A7C
:1046D00023431A430260CB6843600B6883604B68D6
:1046E000C36010BD0021016041608160C160016153
:1046F00041618161C161016241628162704721B1A2
:10470000026842F00102026004E002684FF6FE73A4
:104710001A40026070471AB103680B43036002E05D
:1047200003688B43036070474160704701464868E7
:1047300080B2704701460020002201F080531BB177
:104740001C4B083B1A6802E0194B083B1A6802EA46
:1047500001030BB1012000E00020704700F0805100
:1047600019B11449091F086002E01149083948606D
:10477000704701460020002201F080531BB10D4B11
:10478000083B1A6802E00A4B083B1A6802EA010378
:104790000BB1012000E00020704700F0805119B1FA
:1047A0000449091F086002E0014908394860704760
:1047B000080002400804024010B50446FB48844249
:1047C00009D101218803FEF775FF00214FF48040D5
:1047D000FEF770FF32E0F648844209D10121480417
:1047E000FEF775FF00214FF40030FEF770FF25E063
:1047F000F048844209D101218804FEF768FF0021B6
:104800004FF48020FEF763FF18E0EB48844209D1A3
:104810000121C804FEF75BFF00214FF40020FEF7E2
:1048200056FF0BE0E548844208D101210805FEF758
:104830004EFF00214FF48010FEF749FF10BD2DE917
:10484000F04786B005460E460024A24600BFA146AA
:104850000027B08900B100BF2F462C8A4CF6FF70AC
:104860000440F08804432C82AC894EF6F3100440D7
:10487000B08831890843718908430443AC81AC8A0C
:104880004FF6FF400440B0890443AC8201A8FEF714
:104890008AFEC648874202D1DDF810A001E0DDF8AB
:1048A0000CA0A88900F4004040B10AEBCA0000EB5C
:1048B0000A1031684900B0FBF1F807E00AEBCA00C2
:1048C00000EB0A1031688900B0FBF1F86420B8FBF6
:1048D000F0F004012009642101FB1089A88900F48B
:1048E000004040B1322000EBC900B0FBF1F000F015
:1048F0000700044308E0322000EB09106421B0FBFC
:10490000F1F000F00F0004432C8106B0BDE8F08701
:104910004FF41651016000218180C18001810C217A
:10492000418100218181704710B502460020108A24
:104930004FF2FF0318400B884C8823438C88234395
:10494000CC8823431843108210BD00210180418090
:104950008180C180704721B1828942F400528281F6
:1049600004E082894DF6FF731A4082817047F0B5EA
:104970000346002400260025002040F66A17B942AD
:1049800000D100BF1846C1F3421401F01F060127F1
:1049900007FA06F5012C01D10C3004E0022C01D1FC
:1049A000103000E014301AB107682F43076002E0AE
:1049B0000768AF430760F0BD1AB1838A0B43838257
:1049C00002E0838A8B4383827047028A4FF6F0733A
:1049D0001A400282028A0A430282704782894FF299
:1049E000FF731A40828182890A438281704721B114
:1049F000828942F00202828104E082894FF6FD73CF
:104A00001A4082817047028A4FF6DF731A40028291
:104A1000028A0A430282704721B1028A42F480422C
:104A2000028204E0028A4BF6FF731A40028270474A
:104A3000C1F308028280704701468888C0F30800ED
:104A40007047818941F0010181817047028BD2B2A8
:104A50000283028B42EA012202837047028B02F436
:104A60007F420283028B0A430283704721B1828A0C
:104A700042F02002828204E0828A4FF6DF731A40FD
:104A80008282704721B1828A42F01002828204E061
:104A9000828A4FF6EF731A408282704721B1828A70
:104AA00042F00802828204E0828A4FF6F7731A40CD
:104AB0008282704721B1828942F40042828103E000
:104AC0008289C2F30E028281704721B1828A42F448
:104AD0000062828204E0828A4FF2FF731A4082826F
:104AE0007047828A4FF6FB731A408282828A0A4399
:104AF0008282704721B1828A42F00202828204E0FF
:104B0000828A4FF6FD731A40828270470246002067
:104B1000B1F5007F00D100BF13880B400BB101201D
:104B200000E00020704701F40072B2F5007F00D170
:104B300000BFCA430280704770B5024600240023BC
:104B40000025002040F66A16B14200D100BFC1F333
:104B5000421501F01F03012606FA03F3012D02D1CD
:104B60009689334006E0022D02D1168A334001E0D7
:104B7000968A33400C12012606FA04F41688344053
:104B800013B10CB1012000E0002070BD10B500226F
:104B9000002340F66A14A14200D100BF0A1201248A
:104BA0009440A3B2DC43048010BD000000380140F3
:104BB0000044004000480040004C004000500040CD
:104BC000002044490860091D0860091D0860091D8E
:104BD000086041483F4914310860704700213D4951
:104BE0008279002A3AD00A46126803689A430B4633
:104BF0001A600A1D126803689A430B1D1A60027935
:104C000011440A6803681A430A60324A083212687B
:104C100003689A432F4B08331A601A1D1268036801
:104C20009A432C4B0C331A604279102A0ED11A1F6A
:104C3000126803681A43274B08331A601A1D12685A
:104C400003681A43234B0C331A600DE02149427963
:104C500011440A6803681A430A6005E002791144A6
:104C60000A6803689A430A60704700210160017175
:104C70000C2141710021817170471649103109687A
:104C80000143144A10321160704701460020114A56
:104C9000143212680A400AB1012000E00020704777
:104CA0000C49143108607047014600200022094B6E
:104CB0001B6803EA0102074B14331B680B4013B156
:104CC0000AB1012000E00020704702491431086059
:104CD0007047000000040140FFFF0F0070B586B070
:104CE00001A8FEF760FC4FF47A710298B0FBF1F472
:104CF000E4082146B1F1807F00D31DE021F07F4020
:104D0000401E4FF0E022506150170F22002807DAB2
:104D100013071E0E0B4B00F00F052D1F5E5503E011
:104D200013071D0E084B1D5400BF00204FF0E0225A
:104D300090610720106100BF6FF00400FDF787FE4F
:104D400006B070BD18ED00E000E400E010B54F487B
:104D5000007801284BD14E49086880474B4840886D
:104D6000022805DB002049494880494948688047B6
:104D700046488088032805DB002044498880444950
:104D8000886880474148C088052805DB00203F49E6
:104D9000C8803F49086980473C4800890A2805DBEC
:104DA00000203A4908813A49486980473748408994
:104DB000142805DB0020354948813549886980473A
:104DC00032488089322805DB00203049888130490B
:104DD000C86980472D48C089642805DB00202B491D
:104DE000C8812B49086A804700202849087010BDF7
:104DF00026484088401C2549488008468088401C39
:104E000088800846C088401CC88008460089401C2D
:104E1000088108464089401C488108468089401C1A
:104E200088810846C089401CC8810846007801284E
:104E300004D108464078401C487002E00120134924
:104E4000087070470FB410B512480078A0B9104927
:104E50000298086003984860049888600698086182
:104E600007984861089888610998C8610A9808629B
:104E7000AFF2830000F010F810BC5DF814FB10B521
:104E800000F010F801200349087010BDA8070020A9
:104E9000B8070020290000204549097809B945498B
:104EA000086070470120424908707047424A116803
:104EB0004FF0E02252694FF0E0239B69D21A4FF481
:104EC0007A735A434FF0E0235B69B2FBF3F201EBD4
:104ED0004103C3EBC11302EBC300704730B5044676
:104EE000FFF7E4FF054600BFFFF7E0FF401BA042CD
:104EF000FAD330BD10B5044603E04FF47A70FFF7E3
:104F0000EDFF201EA4F10104F7D110BD70B50446D9
:104F100004EB4400294951F8200004EB4401274ADE
:104F200002EB81014860FFF7C1FF064600F0B8FEC2
:104F30000546234900F0BAFD04EB44011F4A42F83C
:104F4000210004EB44021D4B03EB8202516804EB89
:104F5000440253F8220000F0E9FF04EB4401174A31
:104F600002EB8101886004EB4400114601EB8000F4
:104F7000806870BD10B5002404E02046FFF7C6FF2E
:104F8000601CC4B2032CF8DB10BD10B50A480068E1
:104F9000401C094908600648007800B910BD054862
:104FA000006810B103480068804700BFF6E70000C2
:104FB0002C0000203400002030000020DC070020FE
:104FC00000247449032A40F2308010F0030C00F0F2
:104FD000158011F8013BBCF1020F624498BF11F833
:104FE00001CB00F8013B38BF11F8013BA2F10402EC
:104FF00098BF00F801CB38BF00F8013B11F0030364
:1050000000F02580083AC0F0088051F8043B083AC7
:1050100051F804CBA0E80810F5E7121D5CBF51F869
:10502000043B40F8043BAFF30080D20724BF11F8E3
:10503000013B11F801CB48BF11F8012B24BF00F848
:10504000013B00F801CB48BF00F8012B704710B5B9
:10505000203AC0F00B80B1E81850203AA0E8185070
:10506000B1E81850A0E81850BFF4F5AF5FEA027C31
:1050700024BFB1E81850A0E8185044BF18C918C0A0
:10508000BDE810405FEA827C24BF51F8043B40F841
:10509000043B08BF7047D20728BF31F8023B48BF26
:1050A00011F8012B28BF20F8023B48BF00F8012B64
:1050B0007047704770477047754600F02BF8AE4652
:1050C00005006946534620F00700854618B020B514
:1050D000FDF75CFCBDE820404FF000064FF00007F4
:1050E0004FF000084FF0000B21F00701AC46ACE890
:1050F000C009ACE8C009ACE8C009ACE8C0098D46FD
:10510000704710B50446AFF300802046BDE810405C
:10511000FBF755B8004870470008002001491820E7
:10512000ABBEFEE726000200704700002DE9F0410B
:10513000C1F30A52A2F2FF362F4A304B0D46044605
:10514000142E2FDA002E12DA00F0CEF800221346C9
:1051500000F0E6FA4CD2002DBCBF4FF00045002411
:1051600046DB55EA040018BF254D19D140E0DFF8B1
:1051700094C02CFA06F705EA070C5CEA040C08BF99
:10518000BDE8F08100F0B0F80022134600F0C8FA44
:105190002ED2002D03DD4FF48010F0400544BD43B6
:1051A000002425E0332EC8BFBDE8F081A6F1140C21
:1051B0004FF0FF3727FA0CF73C4208BFBDE8F081FB
:1051C00000F0E4FA0022134600F0AAFA10D2002DF3
:1051D0000DDD142E08BF6D1C09D0C6F1340001216D
:1051E00001FA00F02044A04238BF6D1C0446BC43C5
:1051F00029462046BDE8F0819C7500883CE4377E56
:105200000000F03FFFFF0F002DE9F041C0F3C75150
:10521000A1F17F050446172DA8BFBDE8F0814FF02E
:105220007F471549002D0FDA00F0D2FBB7EB400F96
:105230001FD300281DDD002CA8BF002419DAB4F10B
:10524000004F18BF0D4C14E00D4A22FA05F6344207
:1052500008BFBDE8F08100F0BBFBB7EB400F08D3FF
:10526000002806DD002C03DA4FF40000E840044477
:10527000B4432046BDE8F081CAF24971000080BF06
:10528000FFFF7F0021F00042A2F16052B2F5801FC3
:1052900001F0004328BFD2F17F6C0BD95FEA001CFC
:1052A00043EAC20242EB507018BF704728BF20F09B
:1052B00001007047B2F5801FBCBF184670474FEA27
:1052C000410C1CF5001F02D2084600F0F8BD70B575
:1052D00000F0D2F900000089FFF7F6BF4FF0004060
:1052E000A0F580007047000010B591EA030F48BF99
:1052F00083F0004300F15E82841A71EB030C05D247
:10530000121943EB0C03001B61EB0C01DFF824E1E5
:105310004FEA1154A4EB135C1EEA430F18BF9EEA38
:10532000445F73D023EA0E03DCF1200E21EA04511E
:1053300043F4801332D322FA0CFE10EB0E0023FA52
:105340000CFE41EB0E01CCF1200E03FA0EFE10EB29
:105350000E0051F10001B1F5801FCCF1200E32D2C8
:1053600001EB045112FA0EF2BDE8104058BF70472D
:10537000401C38BF5FEA420218BF7047002814BFC4
:1053800020F0010041F100014FEA410313F5001F35
:1053900038BF7047A1F1C04100F0BCB9012A43EB0E
:1053A0000302ACF1200CDCF11F0E32BF4FF0000EF7
:1053B00023FA0CF310EB030041EB0451B4EB115F43
:1053C000D0D0A1EB045101F5801149085FEA30000B
:1053D00001EB04510ED350F1000038BF12FA0EFE5B
:1053E00008D1BDE81040C9E7401C38BF5FEA42025F
:1053F000CAD1C3E7BDE810404FEA410313F5001FCF
:1054000038BF7047A1F1C04100F084B99EEA445F03
:1054100008D011EA5E0FBDE8104004BF01F0004162
:1054200000207047BDE8104070B500F025F900BFBE
:1054300064FBBE3E0000E0FF491058BFC1F140418F
:105440005B1058BFC3F140438B42EFF300807047BD
:105450004FEA1153A3F58063D3F11E03A8BFD3F124
:10546000200C08DB4FF0004242EAC12252EA5052BF
:1054700032FA03F0704709420BD4102BC4BF00204E
:10548000704703F5787CBCF1FF3F05D04FF0FF304B
:1054900070474FF00000704770B500F0EDF800BFA6
:1054A0004992248000207047F0E7000051EA030C85
:1054B00017D41CF5801F58BFBCF5801F00F1068073
:1054C000994218BF704708BF9042704707D711F53F
:1054D000801F58BF13F5801F19D499427047894225
:1054E00070471CF5801F08D5BCF5801FF7D58B428F
:1054F00018BF704708BF824270474FF4001C1CEB76
:10550000410F38BF1CEB430F01D28B42704770B57F
:1055100000F0B2F8922449004FF000514FF0805350
:10552000FFF78ABFDFF848C170B51CEA111E1EBF25
:105530001CEA13159EEA0C0F95EA0C0F00F06F8021
:1055400081EA030423EA4C134EEAD47E21EA4C118B
:1055500041F4801143F48013AE44A1FB024CA0FB44
:105560000365AEF17F7E361955EB0C05A1FB034CAC
:105570004CF10003A0FB021C16EB0C06654153F135
:105580000003094218BF46F0010613F4007F0BD157
:105590004FEA03314FEA0530340341EA155140EA3E
:1055A00016506FF003020AE04FEAC3214FEAC5200C
:1055B000F40241EA555140EA56506FF0020202EB04
:1055C0002E4201EB025585EACE710AD05FEA440C07
:1055D00018BF24F0004450F1000041F1000120EA1E
:1055E000D47040F2FE7C624500D270BDA84214BF68
:1055F0004FF080444FF04044002E08BF0024BEF11D
:10560000806FA8BFA1F1C041BDE8704080F28280E8
:105610004FF0000001F1C04101F0004170479EEAE7
:105620000C0F0CEA131518BF95EA0C0F06D04FF0BB
:10563000000081EA030E0EF0004170BD00F01CF87E
:105640008900013E00F007B800F009B84FEA430CAA
:105650005FEA5C5C08D081EA030100F05BB84FEAC6
:10566000410C5FEA5C5CF6D14FF0000001497047E5
:105670000000FF070000F87F0EF1020E2EF0030E6F
:105680005EF8046B364205D4012A43EB030515F599
:10569000001F12D8012841EB010C1CF5001F0CD88B
:1056A0000ED14FEAD17C15F5001F0CEB4C0C0CF120
:1056B000020C08BF4CEBD37C04E04FF0080C01E077
:1056C0004FEAD37C0CEB4C0526FA05F606F00706EC
:1056D000B6F1040C06D20EEB860CBDE870404CF01F
:1056E000010C6047DFE80CF0090B02024FF00041AB
:1056F0004FF00000A1F5002170BD194610460128A9
:1057000051EB010418BFD4F5001484BF002001F050
:10571000004170BD0808A0F500114FEA3101704743
:1057200053EA010C17D41CF5801F58BFBCF5801F2D
:1057300000F106808B4218BF704708BF8242704755
:1057400007D713F5801F58BF11F5801F19D48B425E
:1057500070479B4270471CF5801F08D5BCF5801F21
:10576000F7D5994218BF704708BF904270474FF471
:10577000001C1CEB430F38BF1CEB410F01D29942B8
:1057800070470FB40CBC03BCFFF7C1BE91EA030F16
:1057900010B581F000413FF5AFAD83F0004300F05C
:1057A00009B8000010B591EA030F48BF83F0004329
:1057B0003FF5A2AD841A71EB030C07D212198CF0DD
:1057C000004C43EB0C03001B61EB0C01DFF8A4E180
:1057D0004FEA1154A4EB135C1EEA430F18BF9EEA74
:1057E000445F00F0B08023EA6E03524221EA045184
:1057F000C3EB6E0338BF5B1EDCF1200E25D322FA0B
:105800000CFE10EB0E0043FA0CFE41EB0E01CCF146
:10581000200E03FA0EFE10EB0E0051F10001CCF148
:10582000200E29D412FA0EF201EB0451BDE810400B
:1058300058BF7047401C1CBFB2F1004F7047002892
:105840000CBF491C20F00100704712EB020E43EB25
:10585000030218BF4FF0010E4EEA4202ACF1200CD9
:10586000DCF11E0E54D943FA0CFE10EB0E0051F180
:10587000FF31CCF11E0ED5D50EF1010E12FA0EFE3F
:10588000404141EB010101EB445C5FEA5C5C10D9F3
:1058900010EBDE7001EB045138BFBEF1004FBDE8E4
:1058A000104018BF704700280CBF491C20F00100B1
:1058B000704730D24FEAD42C11F5001124F4006463
:1058C0001BD0B1FA81F20B3AA41AA41ED2F1200324
:1058D000914030FA03F31943904001EBCC71002C56
:1058E00001EB0451BDE81040A8BF704701F1C04171
:1058F0004FF0000001F000417047B0FA80F310FA59
:1059000003F100D110BDE41A173C4805C90AE4E7C9
:1059100001EB045110BD491001EB0451BDE81040EA
:105920004FEA300002E04FF0000170474A0008BF24
:105930000042F8D0B2F5001F28BF704701F00041C7
:105940004FF0000070479EEA445F07D011EA5E0FF7
:10595000BDE8104004BF002100207047BDE81040A2
:1059600070B5FFF789FE00BF40DFF63E83F00041CF
:10597000104670470000E0FF43004FEAD30C4FEAA7
:105980003C0C43401FBF40070CF1605113F0FE4F29
:1059900070471CF0006F03D100200CF000417047ED
:1059A0000CF0004343EA507010B540EACC0000F020
:1059B00040FA00BF000000924FEA0001FFF7AABEC4
:1059C0004FF000414FF00000A1F5002170470000AA
:1059D00090EA010F48BF81F0004100F1AE82421A07
:1059E0003CBF801A89184FEAD0524FF07F4C1CEA16
:1059F000410FA2EBD15318BF9CEA026F00F03B802D
:105A00004FF0004C4CEA00204CEA012121FA03FC43
:105A100010EB0C0C1ED202F1FF325FEA1C2040EBAF
:105A2000C25038BF70471CF07F0F4FEA400C18BFC0
:105A3000BCF17F4F38BF7047C3F12003994008BFC6
:105A400020F00100BCF17F4F38BF7047A0F1C0408B
:105A500000F035BA4FEA3C00000A40EBC25028BFC4
:105A60001CF0FF0F4FEA400CE6D018BFBCF17F4F8F
:105A700038BF7047EAE79CEA026F05D010EA5C0F76
:105A800008BF00F00040704710B500F0D2F900BF29
:105A900064FBBE3E401058BFC0F14040491058BFA3
:105AA000C1F140418142EFF3008070474FF47F0C19
:105AB0001CEAD0121EBF1CEAD11392EA0C0F93EA23
:105AC0000C0F00F0858090EA010F48BF42F480720D
:105AD00040F4000C41F400002CF07F4120F07F40A6
